{
  "_format": "hh-sol-artifact-1",
  "contractName": "GaslessTransfer",
  "sourceName": "contracts/GasslessTransfer.sol",
  "abi": [
    {
      "inputs": [
        {
          "internalType": "address",
          "name": "tokenAddress",
          "type": "address"
        }
      ],
      "stateMutability": "nonpayable",
      "type": "constructor"
    },
    {
      "inputs": [],
      "name": "GaslessTransfer__NotEnoughAllowance",
      "type": "error"
    },
    {
      "inputs": [],
      "name": "GaslessTransfer__NotEnoughBalance",
      "type": "error"
    },
    {
      "inputs": [],
      "name": "GaslessTransfer__PermitFailed",
      "type": "error"
    },
    {
      "inputs": [],
      "name": "GaslessTransfer__TransferFailed",
      "type": "error"
    },
    {
      "inputs": [],
      "name": "owner",
      "outputs": [
        {
          "internalType": "address",
          "name": "",
          "type": "address"
        }
      ],
      "stateMutability": "view",
      "type": "function"
    },
    {
      "inputs": [],
      "name": "token",
      "outputs": [
        {
          "internalType": "contract IERC20Permit",
          "name": "",
          "type": "address"
        }
      ],
      "stateMutability": "view",
      "type": "function"
    },
    {
      "inputs": [
        {
          "internalType": "address",
          "name": "_owner",
          "type": "address"
        },
        {
          "internalType": "uint256",
          "name": "_value",
          "type": "uint256"
        },
        {
          "internalType": "uint256",
          "name": "_deadline",
          "type": "uint256"
        },
        {
          "internalType": "uint8",
          "name": "_v",
          "type": "uint8"
        },
        {
          "internalType": "bytes32",
          "name": "_r",
          "type": "bytes32"
        },
        {
          "internalType": "bytes32",
          "name": "_s",
          "type": "bytes32"
        },
        {
          "internalType": "address",
          "name": "_to",
          "type": "address"
        },
        {
          "internalType": "uint256",
          "name": "_charge",
          "type": "uint256"
        }
      ],
      "name": "transfer",
      "outputs": [],
      "stateMutability": "nonpayable",
      "type": "function"
    }
  ],
  "bytecode": "0x60c060405234801561001057600080fd5b50604051610b82380380610b8283398181016040528101906100329190610103565b8073ffffffffffffffffffffffffffffffffffffffff1660808173ffffffffffffffffffffffffffffffffffffffff16815250503373ffffffffffffffffffffffffffffffffffffffff1660a08173ffffffffffffffffffffffffffffffffffffffff168152505050610130565b600080fd5b600073ffffffffffffffffffffffffffffffffffffffff82169050919050565b60006100d0826100a5565b9050919050565b6100e0816100c5565b81146100eb57600080fd5b50565b6000815190506100fd816100d7565b92915050565b600060208284031215610119576101186100a0565b5b6000610127848285016100ee565b91505092915050565b60805160a051610a0461017e6000396000818160a0015281816103f601526104bf01526000818161013e01528181610206015281816102e1015281816103ba01526104e30152610a046000f3fe608060405234801561001057600080fd5b50600436106100415760003560e01c80637e11cf98146100465780638da5cb5b14610062578063fc0c546a14610080575b600080fd5b610060600480360381019061005b919061060d565b61009e565b005b61006a6104bd565b60405161007791906106d2565b60405180910390f35b6100886104e1565b604051610095919061074c565b60405180910390f35b7f000000000000000000000000000000000000000000000000000000000000000073ffffffffffffffffffffffffffffffffffffffff163373ffffffffffffffffffffffffffffffffffffffff161461012c576040517f08c379a0000000000000000000000000000000000000000000000000000000008152600401610123906107ea565b60405180910390fd5b6000818861013a9190610839565b90507f000000000000000000000000000000000000000000000000000000000000000073ffffffffffffffffffffffffffffffffffffffff1663d505accf8a30848b8b8b8b6040518863ffffffff1660e01b81526004016101a1979695949392919061089a565b600060405180830381600087803b1580156101bb57600080fd5b505af19250505080156101cc575060015b610202576040517fc0778b4300000000000000000000000000000000000000000000000000000000815260040160405180910390fd5b60007f000000000000000000000000000000000000000000000000000000000000000073ffffffffffffffffffffffffffffffffffffffff166323b872dd8b30856040518463ffffffff1660e01b815260040161026193929190610909565b6020604051808303816000875af1158015610280573d6000803e3d6000fd5b505050506040513d601f19601f820116820180604052508101906102a49190610978565b9050806102dd576040517fd46faa8000000000000000000000000000000000000000000000000000000000815260040160405180910390fd5b60007f000000000000000000000000000000000000000000000000000000000000000073ffffffffffffffffffffffffffffffffffffffff1663a9059cbb868c6040518363ffffffff1660e01b815260040161033a9291906109a5565b6020604051808303816000875af1158015610359573d6000803e3d6000fd5b505050506040513d601f19601f8201168201806040525081019061037d9190610978565b9050806103b6576040517fd46faa8000000000000000000000000000000000000000000000000000000000815260040160405180910390fd5b60007f000000000000000000000000000000000000000000000000000000000000000073ffffffffffffffffffffffffffffffffffffffff1663a9059cbb7f0000000000000000000000000000000000000000000000000000000000000000876040518363ffffffff1660e01b81526004016104339291906109a5565b6020604051808303816000875af1158015610452573d6000803e3d6000fd5b505050506040513d601f19601f820116820180604052508101906104769190610978565b9050806104af576040517fd46faa8000000000000000000000000000000000000000000000000000000000815260040160405180910390fd5b505050505050505050505050565b7f000000000000000000000000000000000000000000000000000000000000000081565b7f000000000000000000000000000000000000000000000000000000000000000081565b600080fd5b600073ffffffffffffffffffffffffffffffffffffffff82169050919050565b60006105358261050a565b9050919050565b6105458161052a565b811461055057600080fd5b50565b6000813590506105628161053c565b92915050565b6000819050919050565b61057b81610568565b811461058657600080fd5b50565b60008135905061059881610572565b92915050565b600060ff82169050919050565b6105b48161059e565b81146105bf57600080fd5b50565b6000813590506105d1816105ab565b92915050565b6000819050919050565b6105ea816105d7565b81146105f557600080fd5b50565b600081359050610607816105e1565b92915050565b600080600080600080600080610100898b03121561062e5761062d610505565b5b600061063c8b828c01610553565b985050602061064d8b828c01610589565b975050604061065e8b828c01610589565b965050606061066f8b828c016105c2565b95505060806106808b828c016105f8565b94505060a06106918b828c016105f8565b93505060c06106a28b828c01610553565b92505060e06106b38b828c01610589565b9150509295985092959890939650565b6106cc8161052a565b82525050565b60006020820190506106e760008301846106c3565b92915050565b6000819050919050565b600061071261070d6107088461050a565b6106ed565b61050a565b9050919050565b6000610724826106f7565b9050919050565b600061073682610719565b9050919050565b6107468161072b565b82525050565b6000602082019050610761600083018461073d565b92915050565b600082825260208201905092915050565b7f4f6e6c79206f776e65722063616e2063616c6c20746869732066756e6374696f60008201527f6e00000000000000000000000000000000000000000000000000000000000000602082015250565b60006107d4602183610767565b91506107df82610778565b604082019050919050565b60006020820190508181036000830152610803816107c7565b9050919050565b7f4e487b7100000000000000000000000000000000000000000000000000000000600052601160045260246000fd5b600061084482610568565b915061084f83610568565b92508282019050808211156108675761086661080a565b5b92915050565b61087681610568565b82525050565b6108858161059e565b82525050565b610894816105d7565b82525050565b600060e0820190506108af600083018a6106c3565b6108bc60208301896106c3565b6108c9604083018861086d565b6108d6606083018761086d565b6108e3608083018661087c565b6108f060a083018561088b565b6108fd60c083018461088b565b98975050505050505050565b600060608201905061091e60008301866106c3565b61092b60208301856106c3565b610938604083018461086d565b949350505050565b60008115159050919050565b61095581610940565b811461096057600080fd5b50565b6000815190506109728161094c565b92915050565b60006020828403121561098e5761098d610505565b5b600061099c84828501610963565b91505092915050565b60006040820190506109ba60008301856106c3565b6109c7602083018461086d565b939250505056fea26469706673582212206211dab6917582071a4480220f27c1bea96994169571cb6242627a1f2371da9e64736f6c634300081c0033",
  "linkReferences": {},
  "deployedLinkReferences": {}
}